{
  "_format": "hh-sol-artifact-1",
  "contractName": "EthosLog",
  "sourceName": "contracts/EthosLog.sol",
  "abi": [
    {
      "inputs": [],
      "stateMutability": "nonpayable",
      "type": "constructor"
    },
    {
      "anonymous": false,
      "inputs": [
        {
          "indexed": true,
          "internalType": "address",
          "name": "author",
          "type": "address"
        },
        {
          "indexed": false,
          "internalType": "string",
          "name": "ipfsHash",
          "type": "string"
        }
      ],
      "name": "PostCreated",
      "type": "event"
    },
    {
      "inputs": [],
      "name": "PUBLISH_FEE",
      "outputs": [
        {
          "internalType": "uint256",
          "name": "",
          "type": "uint256"
        }
      ],
      "stateMutability": "view",
      "type": "function"
    },
    {
      "inputs": [],
      "name": "owner",
      "outputs": [
        {
          "internalType": "address",
          "name": "",
          "type": "address"
        }
      ],
      "stateMutability": "view",
      "type": "function"
    },
    {
      "inputs": [
        {
          "internalType": "string",
          "name": "_ipfsHash",
          "type": "string"
        }
      ],
      "name": "publishEntry",
      "outputs": [],
      "stateMutability": "payable",
      "type": "function"
    },
    {
      "inputs": [],
      "name": "withdraw",
      "outputs": [],
      "stateMutability": "nonpayable",
      "type": "function"
    }
  ],
  "bytecode": "0x608060405234801561001057600080fd5b50336000806101000a81548173ffffffffffffffffffffffffffffffffffffffff021916908373ffffffffffffffffffffffffffffffffffffffff160217905550610789806100606000396000f3fe60806040526004361061003f5760003560e01c80633ccfd60b14610044578063520143431461005b5780638da5cb5b14610077578063af97beed146100a2575b600080fd5b34801561005057600080fd5b506100596100cd565b005b6100756004803603810190610070919061044f565b61022b565b005b34801561008357600080fd5b5061008c6102c6565b60405161009991906104d9565b60405180910390f35b3480156100ae57600080fd5b506100b76102ea565b6040516100c4919061050d565b60405180910390f35b60008054906101000a900473ffffffffffffffffffffffffffffffffffffffff1673ffffffffffffffffffffffffffffffffffffffff163373ffffffffffffffffffffffffffffffffffffffff161461015b576040517f08c379a000000000000000000000000000000000000000000000000000000000815260040161015290610585565b60405180910390fd5b60008060009054906101000a900473ffffffffffffffffffffffffffffffffffffffff1673ffffffffffffffffffffffffffffffffffffffff16476040516101a2906105d6565b60006040518083038185875af1925050503d80600081146101df576040519150601f19603f3d011682016040523d82523d6000602084013e6101e4565b606091505b5050905080610228576040517f08c379a000000000000000000000000000000000000000000000000000000000815260040161021f90610637565b60405180910390fd5b50565b66016bcc41e90000341015610275576040517f08c379a000000000000000000000000000000000000000000000000000000000815260040161026c906106a3565b60405180910390fd5b3373ffffffffffffffffffffffffffffffffffffffff167f60f6a34249e8c81d18200240e021c236fe990a6c8d1f66dd302470bd410587ba826040516102bb9190610731565b60405180910390a250565b60008054906101000a900473ffffffffffffffffffffffffffffffffffffffff1681565b66016bcc41e9000081565b6000604051905090565b600080fd5b600080fd5b600080fd5b600080fd5b6000601f19601f8301169050919050565b7f4e487b7100000000000000000000000000000000000000000000000000000000600052604160045260246000fd5b61035c82610313565b810181811067ffffffffffffffff8211171561037b5761037a610324565b5b80604052505050565b600061038e6102f5565b905061039a8282610353565b919050565b600067ffffffffffffffff8211156103ba576103b9610324565b5b6103c382610313565b9050602081019050919050565b82818337600083830152505050565b60006103f26103ed8461039f565b610384565b90508281526020810184848401111561040e5761040d61030e565b5b6104198482856103d0565b509392505050565b600082601f83011261043657610435610309565b5b81356104468482602086016103df565b91505092915050565b600060208284031215610465576104646102ff565b5b600082013567ffffffffffffffff81111561048357610482610304565b5b61048f84828501610421565b91505092915050565b600073ffffffffffffffffffffffffffffffffffffffff82169050919050565b60006104c382610498565b9050919050565b6104d3816104b8565b82525050565b60006020820190506104ee60008301846104ca565b92915050565b6000819050919050565b610507816104f4565b82525050565b600060208201905061052260008301846104fe565b92915050565b600082825260208201905092915050565b7f536f6c6f20656c206f776e657200000000000000000000000000000000000000600082015250565b600061056f600d83610528565b915061057a82610539565b602082019050919050565b6000602082019050818103600083015261059e81610562565b9050919050565b600081905092915050565b50565b60006105c06000836105a5565b91506105cb826105b0565b600082019050919050565b60006105e1826105b3565b9150819050919050565b7f4572726f7220616c207265746972617200000000000000000000000000000000600082015250565b6000610621601083610528565b915061062c826105eb565b602082019050919050565b6000602082019050818103600083015261065081610614565b9050919050565b7f5061676f20696e737566696369656e7465000000000000000000000000000000600082015250565b600061068d601183610528565b915061069882610657565b602082019050919050565b600060208201905081810360008301526106bc81610680565b9050919050565b600081519050919050565b60005b838110156106ec5780820151818401526020810190506106d1565b60008484015250505050565b6000610703826106c3565b61070d8185610528565b935061071d8185602086016106ce565b61072681610313565b840191505092915050565b6000602082019050818103600083015261074b81846106f8565b90509291505056fea2646970667358221220ee5902f92043b8e9478d9c747f1972c5fdf444792b23bafa42bdeeab4a34c64e64736f6c63430008130033",
  "linkReferences": {},
  "deployedLinkReferences": {}
}